S00C000070726F672E7372656360
S1130000821020018410200286102003881020040E
S11300108A1020058C1020068E10200790102008CE
S1130020921020099410201096102011981020127C
S11300309A1020139C1020149E102015A010201636
S1130040A2102017A4102018A6102019A81021010E
S1130050AA102102AC102103AE102104B010210516
S1130060B2102106B4102107B6102108B8102109D6
S1130070BA102200BC102201BE10220280102111ED
S11300800100000001000000010000000100000068
S9030000FC
